{
  "contractName": "Storage",
  "abi": [
    {
      "inputs": [
        {
          "internalType": "string",
          "name": "_name",
          "type": "string"
        },
        {
          "internalType": "string",
          "name": "_ftype",
          "type": "string"
        },
        {
          "internalType": "string",
          "name": "_fhash",
          "type": "string"
        },
        {
          "internalType": "string",
          "name": "_fdate",
          "type": "string"
        },
        {
          "internalType": "string",
          "name": "_fsize",
          "type": "string"
        }
      ],
      "name": "addFile",
      "outputs": [
        {
          "internalType": "string",
          "name": "",
          "type": "string"
        }
      ],
      "stateMutability": "nonpayable",
      "type": "function"
    },
    {
      "inputs": [
        {
          "internalType": "uint256",
          "name": "index",
          "type": "uint256"
        }
      ],
      "name": "unLinkData",
      "outputs": [],
      "stateMutability": "nonpayable",
      "type": "function"
    },
    {
      "inputs": [],
      "name": "getData",
      "outputs": [
        {
          "internalType": "string[]",
          "name": "",
          "type": "string[]"
        },
        {
          "internalType": "string[]",
          "name": "",
          "type": "string[]"
        },
        {
          "internalType": "string[]",
          "name": "",
          "type": "string[]"
        },
        {
          "internalType": "string[]",
          "name": "",
          "type": "string[]"
        },
        {
          "internalType": "string[]",
          "name": "",
          "type": "string[]"
        }
      ],
      "stateMutability": "view",
      "type": "function",
      "constant": true
    }
  ],
  "bytecode": "0x608060405234801561001057600080fd5b5061153a806100206000396000f3fe608060405234801561001057600080fd5b50600436106100415760003560e01c80630a7fac44146100465780633bc5de3014610076578063901ea46a14610098575b600080fd5b610060600480360381019061005b9190610fad565b6100b4565b60405161006d919061113c565b60405180910390f35b61007e610274565b60405161008f95949392919061126a565b60405180910390f35b6100b260048036038101906100ad9190611316565b6109fc565b005b606060006040518060a001604052808881526020018781526020018681526020018581526020018481525090506000803373ffffffffffffffffffffffffffffffffffffffff1673ffffffffffffffffffffffffffffffffffffffff1681526020019081526020016000208190806001815401808255809150506001900390600052602060002090600502016000909190919091506000820151816000019080519060200190610165929190610ce3565b506020820151816001019080519060200190610182929190610ce3565b50604082015181600201908051906020019061019f929190610ce3565b5060608201518160030190805190602001906101bc929190610ce3565b5060808201518160040190805190602001906101d9929190610ce3565b50505060018060003373ffffffffffffffffffffffffffffffffffffffff1673ffffffffffffffffffffffffffffffffffffffff168152602001908152602001600020600082825461022b9190611372565b925050819055506040518060400160405280600281526020017f6f6b00000000000000000000000000000000000000000000000000000000000081525091505095945050505050565b60608060608060606000600160003373ffffffffffffffffffffffffffffffffffffffff1673ffffffffffffffffffffffffffffffffffffffff16815260200190815260200160002054905060008167ffffffffffffffff8111156102dc576102db610e82565b5b60405190808252806020026020018201604052801561030f57816020015b60608152602001906001900390816102fa5790505b50905060008267ffffffffffffffff81111561032e5761032d610e82565b5b60405190808252806020026020018201604052801561036157816020015b606081526020019060019003908161034c5790505b50905060008367ffffffffffffffff8111156103805761037f610e82565b5b6040519080825280602002602001820160405280156103b357816020015b606081526020019060019003908161039e5790505b50905060008467ffffffffffffffff8111156103d2576103d1610e82565b5b60405190808252806020026020018201604052801561040557816020015b60608152602001906001900390816103f05790505b50905060008567ffffffffffffffff81111561042457610423610e82565b5b60405190808252806020026020018201604052801561045757816020015b60608152602001906001900390816104425790505b50905060005b600160003373ffffffffffffffffffffffffffffffffffffffff1673ffffffffffffffffffffffffffffffffffffffff168152602001908152602001600020548110156109df576000803373ffffffffffffffffffffffffffffffffffffffff1673ffffffffffffffffffffffffffffffffffffffff16815260200190815260200160002081815481106104f4576104f36113c8565b5b9060005260206000209060050201600001805461051090611426565b80601f016020809104026020016040519081016040528092919081815260200182805461053c90611426565b80156105895780601f1061055e57610100808354040283529160200191610589565b820191906000526020600020905b81548152906001019060200180831161056c57829003601f168201915b50505050508682815181106105a1576105a06113c8565b5b60200260200101819052506000803373ffffffffffffffffffffffffffffffffffffffff1673ffffffffffffffffffffffffffffffffffffffff16815260200190815260200160002081815481106105fc576105fb6113c8565b5b9060005260206000209060050201600101805461061890611426565b80601f016020809104026020016040519081016040528092919081815260200182805461064490611426565b80156106915780601f1061066657610100808354040283529160200191610691565b820191906000526020600020905b81548152906001019060200180831161067457829003601f168201915b50505050508582815181106106a9576106a86113c8565b5b60200260200101819052506000803373ffffffffffffffffffffffffffffffffffffffff1673ffffffffffffffffffffffffffffffffffffffff1681526020019081526020016000208181548110610704576107036113c8565b5b9060005260206000209060050201600201805461072090611426565b80601f016020809104026020016040519081016040528092919081815260200182805461074c90611426565b80156107995780601f1061076e57610100808354040283529160200191610799565b820191906000526020600020905b81548152906001019060200180831161077c57829003601f168201915b50505050508482815181106107b1576107b06113c8565b5b60200260200101819052506000803373ffffffffffffffffffffffffffffffffffffffff1673ffffffffffffffffffffffffffffffffffffffff168152602001908152602001600020818154811061080c5761080b6113c8565b5b9060005260206000209060050201600301805461082890611426565b80601f016020809104026020016040519081016040528092919081815260200182805461085490611426565b80156108a15780601f10610876576101008083540402835291602001916108a1565b820191906000526020600020905b81548152906001019060200180831161088457829003601f168201915b50505050508382815181106108b9576108b86113c8565b5b60200260200101819052506000803373ffffffffffffffffffffffffffffffffffffffff1673ffffffffffffffffffffffffffffffffffffffff1681526020019081526020016000208181548110610914576109136113c8565b5b9060005260206000209060050201600401805461093090611426565b80601f016020809104026020016040519081016040528092919081815260200182805461095c90611426565b80156109a95780601f1061097e576101008083540402835291602001916109a9565b820191906000526020600020905b81548152906001019060200180831161098c57829003601f168201915b50505050508282815181106109c1576109c06113c8565b5b602002602001018190525080806109d790611458565b91505061045d565b5084848484849a509a509a509a509a505050505050509091929394565b60008190505b60018060003373ffffffffffffffffffffffffffffffffffffffff1673ffffffffffffffffffffffffffffffffffffffff16815260200190815260200160002054610a4d91906114a1565b811015610bd2576000803373ffffffffffffffffffffffffffffffffffffffff1673ffffffffffffffffffffffffffffffffffffffff168152602001908152602001600020600182610a9f9190611372565b81548110610ab057610aaf6113c8565b5b90600052602060002090600502016000803373ffffffffffffffffffffffffffffffffffffffff1673ffffffffffffffffffffffffffffffffffffffff1681526020019081526020016000208281548110610b0e57610b0d6113c8565b5b90600052602060002090600502016000820181600001908054610b3090611426565b610b3b929190610d69565b506001820181600101908054610b5090611426565b610b5b929190610d69565b506002820181600201908054610b7090611426565b610b7b929190610d69565b506003820181600301908054610b9090611426565b610b9b929190610d69565b506004820181600401908054610bb090611426565b610bbb929190610d69565b509050508080610bca90611458565b915050610a02565b5060018060003373ffffffffffffffffffffffffffffffffffffffff1673ffffffffffffffffffffffffffffffffffffffff1681526020019081526020016000206000828254610c2291906114a1565b925050819055506000803373ffffffffffffffffffffffffffffffffffffffff1673ffffffffffffffffffffffffffffffffffffffff168152602001908152602001600020805480610c7757610c766114d5565b5b600190038181906000526020600020906005020160008082016000610c9c9190610df6565b600182016000610cac9190610df6565b600282016000610cbc9190610df6565b600382016000610ccc9190610df6565b600482016000610cdc9190610df6565b5050905550565b828054610cef90611426565b90600052602060002090601f016020900481019282610d115760008555610d58565b82601f10610d2a57805160ff1916838001178555610d58565b82800160010185558215610d58579182015b82811115610d57578251825591602001919060010190610d3c565b5b509050610d659190610e36565b5090565b828054610d7590611426565b90600052602060002090601f016020900481019282610d975760008555610de5565b82601f10610da85780548555610de5565b82800160010185558215610de557600052602060002091601f016020900482015b82811115610de4578254825591600101919060010190610dc9565b5b509050610df29190610e36565b5090565b508054610e0290611426565b6000825580601f10610e145750610e33565b601f016020900490600052602060002090810190610e329190610e36565b5b50565b5b80821115610e4f576000816000905550600101610e37565b5090565b6000604051905090565b600080fd5b600080fd5b600080fd5b600080fd5b6000601f19601f8301169050919050565b7f4e487b7100000000000000000000000000000000000000000000000000000000600052604160045260246000fd5b610eba82610e71565b810181811067ffffffffffffffff82111715610ed957610ed8610e82565b5b80604052505050565b6000610eec610e53565b9050610ef88282610eb1565b919050565b600067ffffffffffffffff821115610f1857610f17610e82565b5b610f2182610e71565b9050602081019050919050565b82818337600083830152505050565b6000610f50610f4b84610efd565b610ee2565b905082815260208101848484011115610f6c57610f6b610e6c565b5b610f77848285610f2e565b509392505050565b600082601f830112610f9457610f93610e67565b5b8135610fa4848260208601610f3d565b91505092915050565b600080600080600060a08688031215610fc957610fc8610e5d565b5b600086013567ffffffffffffffff811115610fe757610fe6610e62565b5b610ff388828901610f7f565b955050602086013567ffffffffffffffff81111561101457611013610e62565b5b61102088828901610f7f565b945050604086013567ffffffffffffffff81111561104157611040610e62565b5b61104d88828901610f7f565b935050606086013567ffffffffffffffff81111561106e5761106d610e62565b5b61107a88828901610f7f565b925050608086013567ffffffffffffffff81111561109b5761109a610e62565b5b6110a788828901610f7f565b9150509295509295909350565b600081519050919050565b600082825260208201905092915050565b60005b838110156110ee5780820151818401526020810190506110d3565b838111156110fd576000848401525b50505050565b600061110e826110b4565b61111881856110bf565b93506111288185602086016110d0565b61113181610e71565b840191505092915050565b600060208201905081810360008301526111568184611103565b905092915050565b600081519050919050565b600082825260208201905092915050565b6000819050602082019050919050565b600082825260208201905092915050565b60006111a6826110b4565b6111b0818561118a565b93506111c08185602086016110d0565b6111c981610e71565b840191505092915050565b60006111e0838361119b565b905092915050565b6000602082019050919050565b60006112008261115e565b61120a8185611169565b93508360208202850161121c8561117a565b8060005b85811015611258578484038952815161123985826111d4565b9450611244836111e8565b925060208a01995050600181019050611220565b50829750879550505050505092915050565b600060a082019050818103600083015261128481886111f5565b9050818103602083015261129881876111f5565b905081810360408301526112ac81866111f5565b905081810360608301526112c081856111f5565b905081810360808301526112d481846111f5565b90509695505050505050565b6000819050919050565b6112f3816112e0565b81146112fe57600080fd5b50565b600081359050611310816112ea565b92915050565b60006020828403121561132c5761132b610e5d565b5b600061133a84828501611301565b91505092915050565b7f4e487b7100000000000000000000000000000000000000000000000000000000600052601160045260246000fd5b600061137d826112e0565b9150611388836112e0565b9250827fffffffffffffffffffffffffffffffffffffffffffffffffffffffffffffffff038211156113bd576113bc611343565b5b828201905092915050565b7f4e487b7100000000000000000000000000000000000000000000000000000000600052603260045260246000fd5b7f4e487b7100000000000000000000000000000000000000000000000000000000600052602260045260246000fd5b6000600282049050600182168061143e57607f821691505b60208210811415611452576114516113f7565b5b50919050565b6000611463826112e0565b91507fffffffffffffffffffffffffffffffffffffffffffffffffffffffffffffffff82141561149657611495611343565b5b600182019050919050565b60006114ac826112e0565b91506114b7836112e0565b9250828210156114ca576114c9611343565b5b828203905092915050565b7f4e487b7100000000000000000000000000000000000000000000000000000000600052603160045260246000fdfea2646970667358221220efe4cfdc4ad38b27a991acd1993823785509ec38b00d7143fc31d2720a3f441764736f6c634300080a0033",
  "immutableReferences": {},
  "source": "pragma solidity >=0.4.22 <0.9.0;\r\n\r\ncontract Storage{\r\n    struct Files{\r\n        string fname;\r\n        string ftype;\r\n        string fhash;\r\n        string fdate;\r\n        string fsize;\r\n    }\r\n\r\n\r\n    mapping(address => Files[]) fileStorage;\r\n    mapping(address => uint) counter;\r\n    function addFile(string memory _name,string memory _ftype,string memory _fhash,string memory _fdate,string memory _fsize) public returns(string memory){\r\n        Files memory f = Files(_name,_ftype,_fhash,_fdate,_fsize);\r\n        fileStorage[msg.sender].push(f);\r\n        counter[msg.sender] += 1;\r\n        return \"ok\";\r\n    }\r\n    \r\n    function unLinkData(uint index) public{\r\n        for(uint i = index; i < counter[msg.sender]-1; i++){\r\n            fileStorage[msg.sender][i] = fileStorage[msg.sender][i+1];      \r\n        }\r\n        counter[msg.sender] -= 1;\r\n        fileStorage[msg.sender].pop();\r\n    }\r\n\r\n    function getData() public  view returns(string[] memory,string[] memory,string[] memory,string[] memory,string[] memory){\r\n        \r\n        uint n = counter[msg.sender];\r\n        string[] memory _fname = new string[](n);\r\n        string[] memory _ftype = new string[](n);\r\n        string[] memory _fhash = new string[](n);\r\n        string[] memory _fdate = new string[](n);\r\n        string[] memory _fsize = new string[](n);\r\n        for(uint i=0;i<counter[msg.sender];i++){\r\n            _fname[i] = fileStorage[msg.sender][i].fname;\r\n            _ftype[i] = fileStorage[msg.sender][i].ftype;\r\n            _fhash[i] = fileStorage[msg.sender][i].fhash;\r\n            _fdate[i] = fileStorage[msg.sender][i].fdate;\r\n            _fsize[i] = fileStorage[msg.sender][i].fsize;\r\n\r\n        }\r\n        return (_fname,_ftype,_fhash,_fdate,_fsize);\r\n    }\r\n}\r\n",
  "sourcePath": "C:\\Users\\Yash\\Desktop\\finaltruffledemo\\contracts\\Storage.sol",
  "compiler": {
    "name": "solc",
    "version": "0.8.10+commit.fc410830.Emscripten.clang"
  },
  "schemaVersion": "3.4.4",
  "updatedAt": "2022-02-18T11:01:09.586Z",
  "networkType": "ethereum",
  "devdoc": {
    "kind": "dev",
    "methods": {},
    "version": 1
  },
  "userdoc": {
    "kind": "user",
    "methods": {},
    "version": 1
  }
}